{
  "contractName": "TodoList",
  "abi": [
    {
      "anonymous": false,
      "inputs": [
        {
          "indexed": false,
          "internalType": "address",
          "name": "recepient",
          "type": "address"
        },
        {
          "indexed": false,
          "internalType": "uint256",
          "name": "todoId",
          "type": "uint256"
        }
      ],
      "name": "AddTodo",
      "type": "event"
    },
    {
      "anonymous": false,
      "inputs": [
        {
          "indexed": false,
          "internalType": "uint256",
          "name": "todoId",
          "type": "uint256"
        },
        {
          "indexed": false,
          "internalType": "bool",
          "name": "isDeleted",
          "type": "bool"
        }
      ],
      "name": "DeleteTodo",
      "type": "event"
    },
    {
      "constant": true,
      "inputs": [
        {
          "internalType": "uint256",
          "name": "",
          "type": "uint256"
        }
      ],
      "name": "todoToOwner",
      "outputs": [
        {
          "internalType": "address",
          "name": "",
          "type": "address"
        }
      ],
      "payable": false,
      "stateMutability": "view",
      "type": "function"
    },
    {
      "constant": true,
      "inputs": [
        {
          "internalType": "uint256",
          "name": "",
          "type": "uint256"
        }
      ],
      "name": "todos",
      "outputs": [
        {
          "internalType": "uint256",
          "name": "id",
          "type": "uint256"
        },
        {
          "internalType": "string",
          "name": "name",
          "type": "string"
        },
        {
          "internalType": "string",
          "name": "description",
          "type": "string"
        },
        {
          "internalType": "bool",
          "name": "isCompleted",
          "type": "bool"
        },
        {
          "internalType": "bool",
          "name": "isDeleted",
          "type": "bool"
        },
        {
          "internalType": "uint256",
          "name": "createdAt",
          "type": "uint256"
        }
      ],
      "payable": false,
      "stateMutability": "view",
      "type": "function"
    },
    {
      "constant": false,
      "inputs": [
        {
          "internalType": "string",
          "name": "_name",
          "type": "string"
        },
        {
          "internalType": "string",
          "name": "_description",
          "type": "string"
        },
        {
          "internalType": "uint256",
          "name": "_createdAt",
          "type": "uint256"
        }
      ],
      "name": "addTodo",
      "outputs": [],
      "payable": false,
      "stateMutability": "nonpayable",
      "type": "function"
    },
    {
      "constant": false,
      "inputs": [
        {
          "internalType": "uint256",
          "name": "todoId",
          "type": "uint256"
        }
      ],
      "name": "deleteTodo",
      "outputs": [],
      "payable": false,
      "stateMutability": "nonpayable",
      "type": "function"
    },
    {
      "constant": false,
      "inputs": [
        {
          "internalType": "uint256",
          "name": "todoId",
          "type": "uint256"
        },
        {
          "internalType": "string",
          "name": "_description",
          "type": "string"
        }
      ],
      "name": "editTodoDescription",
      "outputs": [],
      "payable": false,
      "stateMutability": "nonpayable",
      "type": "function"
    },
    {
      "constant": false,
      "inputs": [
        {
          "internalType": "uint256",
          "name": "todoId",
          "type": "uint256"
        }
      ],
      "name": "toggleCompleted",
      "outputs": [],
      "payable": false,
      "stateMutability": "nonpayable",
      "type": "function"
    },
    {
      "constant": true,
      "inputs": [],
      "name": "getMyTodos",
      "outputs": [
        {
          "components": [
            {
              "internalType": "uint256",
              "name": "id",
              "type": "uint256"
            },
            {
              "internalType": "string",
              "name": "name",
              "type": "string"
            },
            {
              "internalType": "string",
              "name": "description",
              "type": "string"
            },
            {
              "internalType": "bool",
              "name": "isCompleted",
              "type": "bool"
            },
            {
              "internalType": "bool",
              "name": "isDeleted",
              "type": "bool"
            },
            {
              "internalType": "uint256",
              "name": "createdAt",
              "type": "uint256"
            }
          ],
          "internalType": "struct TodoList.Todo[]",
          "name": "",
          "type": "tuple[]"
        }
      ],
      "payable": false,
      "stateMutability": "view",
      "type": "function"
    }
  ],
  "bytecode": "0x608060405234801561001057600080fd5b5061124a806100206000396000f3fe608060405234801561001057600080fd5b506004361061007d5760003560e01c8063bc8bc2b41161005b578063bc8bc2b4146100c8578063f62a69c1146100ed578063f8eb726314610100578063fc1be84d146101135761007d565b8063455f50241461008257806345cd4759146100975780636e3c6738146100b5575b600080fd5b610095610090366004610e26565b610133565b005b61009f610375565b6040516100ac9190611077565b60405180910390f35b6100956100c3366004610e26565b610656565b6100db6100d6366004610e26565b610733565b6040516100ac969594939291906110b3565b6100956100fb366004610daa565b6108a7565b61009561010e366004610e4c565b610a13565b610126610121366004610e26565b610c58565b6040516100ac919061104e565b61013b610c73565b6000828154811061014857fe5b90600052602060002090600502016040518060c001604052908160008201548152602001600182018054600181600116156101000203166002900480601f0160208091040260200160405190810160405280929190818152602001828054600181600116156101000203166002900480156102045780601f106101d957610100808354040283529160200191610204565b820191906000526020600020905b8154815290600101906020018083116101e757829003601f168201915b5050509183525050600282810180546040805160206001841615610100026000190190931694909404601f810183900483028501830190915280845293810193908301828280156102965780601f1061026b57610100808354040283529160200191610296565b820191906000526020600020905b81548152906001019060200180831161027957829003601f168201915b5050509183525050600382015460ff80821615156020840152610100909104161515604082015260049091015460609182015281018051159052600080549192508291849081106102e357fe5b9060005260206000209060050201600082015181600001556020820151816001019080519060200190610317929190610cad565b5060408201518051610333916002840191602090910190610cad565b506060820151600382018054608085015115156101000261ff001993151560ff19909216919091179290921691909117905560a0909101516004909101555050565b6060806000805490506040519080825280602002602001820160405280156103b757816020015b6103a4610c73565b81526020019060019003908161039c5790505b5090506000805b6000548110156105cf576000818152600160205260409020546001600160a01b0316331480156104145750600081815481106103f657fe5b6000918252602090912060059091020160030154610100900460ff16155b156105c7576000818154811061042657fe5b90600052602060002090600502016040518060c001604052908160008201548152602001600182018054600181600116156101000203166002900480601f0160208091040260200160405190810160405280929190818152602001828054600181600116156101000203166002900480156104e25780601f106104b7576101008083540402835291602001916104e2565b820191906000526020600020905b8154815290600101906020018083116104c557829003601f168201915b5050509183525050600282810180546040805160206001841615610100026000190190931694909404601f810183900483028501830190915280845293810193908301828280156105745780601f1061054957610100808354040283529160200191610574565b820191906000526020600020905b81548152906001019060200180831161055757829003601f168201915b5050509183525050600382015460ff80821615156020840152610100909104161515604082015260049091015460609091015283518490849081106105b557fe5b60209081029190910101526001909101905b6001016103be565b5060608160405190808252806020026020018201604052801561060c57816020015b6105f9610c73565b8152602001906001900390816105f15790505b50905060005b8281101561064d5783818151811061062657fe5b602002602001015182828151811061063a57fe5b6020908102919091010152600101610612565b50925050505b90565b6000818152600160205260409020546001600160a01b031633146106955760405162461bcd60e51b815260040161068c90611088565b60405180910390fd5b6001600082815481106106a457fe5b906000526020600020906005020160030160016101000a81548160ff0219169083151502179055507f4d3f78f0596d39b555572af3b3508d43d776242a1b22c87f97fa71f13e9b2caa81600083815481106106fb57fe5b906000526020600020906005020160030160019054906101000a900460ff16604051610728929190611098565b60405180910390a150565b6000818154811061074057fe5b9060005260206000209060050201600091509050806000015490806001018054600181600116156101000203166002900480601f0160208091040260200160405190810160405280929190818152602001828054600181600116156101000203166002900480156107f25780601f106107c7576101008083540402835291602001916107f2565b820191906000526020600020905b8154815290600101906020018083116107d557829003601f168201915b50505060028085018054604080516020601f60001961010060018716150201909416959095049283018590048502810185019091528181529596959450909250908301828280156108845780601f1061085957610100808354040283529160200191610884565b820191906000526020600020905b81548152906001019060200180831161086757829003601f168201915b505050506003830154600490930154919260ff8082169361010090920416915086565b6000546108b2610c73565b506040805160c08101825282815260208082018781529282018690526000606083018190526080830181905260a0830186905280546001810180835591805283517f290decd9548b62a8d60345a988386fc84ba6bc95484008f6362f93160ef3e563600590920291820190815594518051949592948694610957937f290decd9548b62a8d60345a988386fc84ba6bc95484008f6362f93160ef3e56401920190610cad565b5060408201518051610973916002840191602090910190610cad565b506060820151600382018054608085015115156101000261ff001993151560ff19909216919091179290921691909117905560a090910151600490910155506000828152600160205260409081902080546001600160a01b0319163390811790915590517feb2fbc651194cbec6fe990857b04243a010e3e05d12441e94a73f3dddb1129d591610a0491859061105c565b60405180910390a15050505050565b610a1b610c73565b60008381548110610a2857fe5b90600052602060002090600502016040518060c001604052908160008201548152602001600182018054600181600116156101000203166002900480601f016020809104026020016040519081016040528092919081815260200182805460018160011615610100020316600290048015610ae45780601f10610ab957610100808354040283529160200191610ae4565b820191906000526020600020905b815481529060010190602001808311610ac757829003601f168201915b5050509183525050600282810180546040805160206001841615610100026000190190931694909404601f81018390048302850183019091528084529381019390830182828015610b765780601f10610b4b57610100808354040283529160200191610b76565b820191906000526020600020905b815481529060010190602001808311610b5957829003601f168201915b5050509183525050600382015460ff80821615156020840152610100909104161515604080830191909152600490920154606090910152810183905260008054919250829185908110610bc557fe5b9060005260206000209060050201600082015181600001556020820151816001019080519060200190610bf9929190610cad565b5060408201518051610c15916002840191602090910190610cad565b506060820151600382018054608085015115156101000261ff001993151560ff19909216919091179290921691909117905560a090910151600490910155505050565b6001602052600090815260409020546001600160a01b031681565b6040518060c00160405280600081526020016060815260200160608152602001600015158152602001600015158152602001600081525090565b828054600181600116156101000203166002900490600052602060002090601f016020900481019282601f10610cee57805160ff1916838001178555610d1b565b82800160010185558215610d1b579182015b82811115610d1b578251825591602001919060010190610d00565b50610d27929150610d2b565b5090565b61065391905b80821115610d275760008155600101610d31565b600082601f830112610d5657600080fd5b8135610d69610d6482611142565b61111b565b91508082526020830160208301858383011115610d8557600080fd5b610d908382846111aa565b50505092915050565b8035610da4816111f0565b92915050565b600080600060608486031215610dbf57600080fd5b833567ffffffffffffffff811115610dd657600080fd5b610de286828701610d45565b935050602084013567ffffffffffffffff811115610dff57600080fd5b610e0b86828701610d45565b9250506040610e1c86828701610d99565b9150509250925092565b600060208284031215610e3857600080fd5b6000610e448484610d99565b949350505050565b60008060408385031215610e5f57600080fd5b6000610e6b8585610d99565b925050602083013567ffffffffffffffff811115610e8857600080fd5b610e9485828601610d45565b9150509250929050565b6000610eaa8383610fbc565b9392505050565b610eba81611199565b82525050565b610eba8161117d565b6000610ed482611170565b610ede8185611174565b935083602082028501610ef08561116a565b8060005b85811015610f2a5784840389528151610f0d8582610e9e565b9450610f188361116a565b60209a909a0199925050600101610ef4565b5091979650505050505050565b610eba81611188565b6000610f4b82611170565b610f558185611174565b9350610f658185602086016111b6565b610f6e816111e6565b9093019392505050565b6000610f85602283611174565b7f596f7520617265206e6f7420746865206f776e6572206f66207468697320746f815261646f60f01b602082015260400192915050565b805160009060c0840190610fd08582611045565b5060208301518482036020860152610fe88282610f40565b915050604083015184820360408601526110028282610f40565b91505060608301516110176060860182610f37565b50608083015161102a6080860182610f37565b5060a083015161103d60a0860182611045565b509392505050565b610eba81610653565b60208101610da48284610ec0565b6040810161106a8285610eb1565b610eaa6020830184611045565b60208082528101610eaa8184610ec9565b60208082528101610da481610f78565b604081016110a68285611045565b610eaa6020830184610f37565b60c081016110c18289611045565b81810360208301526110d38188610f40565b905081810360408301526110e78187610f40565b90506110f66060830186610f37565b6111036080830185610f37565b61111060a0830184611045565b979650505050505050565b60405181810167ffffffffffffffff8111828210171561113a57600080fd5b604052919050565b600067ffffffffffffffff82111561115957600080fd5b506020601f91909101601f19160190565b60200190565b5190565b90815260200190565b6000610da48261118d565b151590565b6001600160a01b031690565b6000610da4826000610da48261117d565b82818337506000910152565b60005b838110156111d15781810151838201526020016111b9565b838111156111e0576000848401525b50505050565b601f01601f191690565b6111f981610653565b811461120457600080fd5b5056fea365627a7a723158206f4404a4d6ea58f203a4c3026f2a67707ce290d63ef727981a856b95113aa1c16c6578706572696d656e74616cf564736f6c63430005100040",
  "source": "pragma solidity >=0.4.22 <0.7.0;\npragma experimental ABIEncoderV2;\n\ncontract TodoList {\n    struct Todo {\n        uint id;\n        string name;\n        string description;\n        bool isCompleted;\n        bool isDeleted;\n        uint256 createdAt;\n    }\n\n    // Array to store all Todo items\n    Todo[] public todos;\n\n    // Mapping to store the index of each Todo item in the array\n    mapping(uint256 => address) public todoToOwner;\n\n    event AddTodo(address recepient, uint todoId);\n\n    event DeleteTodo(uint todoId, bool isDeleted);\n\n    function addTodo(\n        string memory _name,\n        string memory _description,\n        uint256 _createdAt\n    ) public {\n        uint todoId = todos.length;\n        Todo memory newTodo = Todo({\n            id: todoId,\n            name: _name,\n            description: _description,\n            isCompleted: false,\n            isDeleted: false,\n            createdAt: _createdAt\n        });\n\n        todos.push(newTodo);\n\n        // Store the index of the Todo item along with the creator's address\n        todoToOwner[todoId] = msg.sender;\n\n        emit AddTodo(msg.sender, todoId);\n    }\n\n    function deleteTodo(uint todoId) external {\n        require(\n            todoToOwner[todoId] == msg.sender,\n            \"You are not the owner of this todo\"\n        );\n        todos[todoId].isDeleted = true;\n\n        emit DeleteTodo(todoId, todos[todoId].isDeleted);\n    }\n\n    function editTodoDescription(\n        uint todoId,\n        string memory _description\n    ) public {\n        Todo memory todo = todos[todoId];\n        todo.description = _description;\n        todos[todoId] = todo;\n    }\n\n    function toggleCompleted(uint todoId) external {\n        Todo memory todo = todos[todoId];\n        todo.isCompleted = !todo.isCompleted;\n        todos[todoId] = todo;\n    }\n\n    function getMyTodos() public view returns (Todo[] memory) {\n        Todo[] memory myTodos = new Todo[](todos.length);\n        uint counter = 0;\n        for (uint i = 0; i < todos.length; i++) {\n            if (todoToOwner[i] == msg.sender && todos[i].isDeleted == false) {\n                myTodos[counter] = todos[i];\n                counter++;\n            }\n        }\n        Todo[] memory result = new Todo[](counter);\n        for (uint i = 0; i < counter; i++) {\n            result[i] = myTodos[i];\n        }\n        return result;\n    }\n}\n",
  "sourcePath": "/Users/ro./Developments/todo-list/smart-contract/contracts/TodoList.sol",
  "compiler": {
    "name": "solc",
    "version": "0.5.16+commit.9c3226ce.Emscripten.clang"
  },
  "schemaVersion": "3.4.16",
  "updatedAt": "2024-04-09T09:29:53.191Z",
  "networkType": "ethereum",
  "devdoc": {
    "methods": {}
  },
  "userdoc": {
    "methods": {}
  }
}