{
  "contractName": "TodoList",
  "abi": [
    {
      "anonymous": false,
      "inputs": [
        {
          "indexed": false,
          "internalType": "address",
          "name": "recepient",
          "type": "address"
        },
        {
          "indexed": false,
          "internalType": "uint256",
          "name": "todoId",
          "type": "uint256"
        }
      ],
      "name": "AddTodo",
      "type": "event"
    },
    {
      "anonymous": false,
      "inputs": [
        {
          "indexed": false,
          "internalType": "uint256",
          "name": "todoId",
          "type": "uint256"
        },
        {
          "indexed": false,
          "internalType": "bool",
          "name": "isDeleted",
          "type": "bool"
        }
      ],
      "name": "DeleteTodo",
      "type": "event"
    },
    {
      "constant": true,
      "inputs": [
        {
          "internalType": "uint256",
          "name": "",
          "type": "uint256"
        }
      ],
      "name": "todoToOwner",
      "outputs": [
        {
          "internalType": "address",
          "name": "",
          "type": "address"
        }
      ],
      "payable": false,
      "stateMutability": "view",
      "type": "function"
    },
    {
      "constant": true,
      "inputs": [
        {
          "internalType": "uint256",
          "name": "",
          "type": "uint256"
        }
      ],
      "name": "todos",
      "outputs": [
        {
          "internalType": "uint256",
          "name": "id",
          "type": "uint256"
        },
        {
          "internalType": "string",
          "name": "name",
          "type": "string"
        },
        {
          "internalType": "string",
          "name": "description",
          "type": "string"
        },
        {
          "internalType": "bool",
          "name": "isCompleted",
          "type": "bool"
        },
        {
          "internalType": "bool",
          "name": "isDeleted",
          "type": "bool"
        },
        {
          "internalType": "uint256",
          "name": "createdAt",
          "type": "uint256"
        }
      ],
      "payable": false,
      "stateMutability": "view",
      "type": "function"
    },
    {
      "constant": false,
      "inputs": [
        {
          "internalType": "string",
          "name": "_name",
          "type": "string"
        },
        {
          "internalType": "string",
          "name": "_description",
          "type": "string"
        },
        {
          "internalType": "uint256",
          "name": "_createdAt",
          "type": "uint256"
        }
      ],
      "name": "addTodo",
      "outputs": [],
      "payable": false,
      "stateMutability": "nonpayable",
      "type": "function"
    },
    {
      "constant": false,
      "inputs": [
        {
          "internalType": "uint256",
          "name": "todoId",
          "type": "uint256"
        }
      ],
      "name": "deleteTodo",
      "outputs": [],
      "payable": false,
      "stateMutability": "nonpayable",
      "type": "function"
    },
    {
      "constant": false,
      "inputs": [
        {
          "internalType": "uint256",
          "name": "todoId",
          "type": "uint256"
        }
      ],
      "name": "toggleCompleted",
      "outputs": [],
      "payable": false,
      "stateMutability": "nonpayable",
      "type": "function"
    },
    {
      "constant": true,
      "inputs": [],
      "name": "getMyTodos",
      "outputs": [
        {
          "components": [
            {
              "internalType": "uint256",
              "name": "id",
              "type": "uint256"
            },
            {
              "internalType": "string",
              "name": "name",
              "type": "string"
            },
            {
              "internalType": "string",
              "name": "description",
              "type": "string"
            },
            {
              "internalType": "bool",
              "name": "isCompleted",
              "type": "bool"
            },
            {
              "internalType": "bool",
              "name": "isDeleted",
              "type": "bool"
            },
            {
              "internalType": "uint256",
              "name": "createdAt",
              "type": "uint256"
            }
          ],
          "internalType": "struct TodoList.Todo[]",
          "name": "",
          "type": "tuple[]"
        }
      ],
      "payable": false,
      "stateMutability": "view",
      "type": "function"
    }
  ],
  "bytecode": "0x608060405234801561001057600080fd5b50610f85806100206000396000f3fe608060405234801561001057600080fd5b50600436106100625760003560e01c8063455f50241461006757806345cd47591461007c5780636e3c67381461009a578063bc8bc2b4146100ad578063f62a69c1146100d2578063fc1be84d146100e5575b600080fd5b61007a610075366004610bb3565b610105565b005b610084610347565b6040516100919190610db2565b60405180910390f35b61007a6100a8366004610bb3565b610628565b6100c06100bb366004610bb3565b610705565b60405161009196959493929190610dee565b61007a6100e0366004610b37565b610879565b6100f86100f3366004610bb3565b6109e5565b6040516100919190610d89565b61010d610a00565b6000828154811061011a57fe5b90600052602060002090600502016040518060c001604052908160008201548152602001600182018054600181600116156101000203166002900480601f0160208091040260200160405190810160405280929190818152602001828054600181600116156101000203166002900480156101d65780601f106101ab576101008083540402835291602001916101d6565b820191906000526020600020905b8154815290600101906020018083116101b957829003601f168201915b5050509183525050600282810180546040805160206001841615610100026000190190931694909404601f810183900483028501830190915280845293810193908301828280156102685780601f1061023d57610100808354040283529160200191610268565b820191906000526020600020905b81548152906001019060200180831161024b57829003601f168201915b5050509183525050600382015460ff80821615156020840152610100909104161515604082015260049091015460609182015281018051159052600080549192508291849081106102b557fe5b90600052602060002090600502016000820151816000015560208201518160010190805190602001906102e9929190610a3a565b5060408201518051610305916002840191602090910190610a3a565b506060820151600382018054608085015115156101000261ff001993151560ff19909216919091179290921691909117905560a0909101516004909101555050565b60608060008054905060405190808252806020026020018201604052801561038957816020015b610376610a00565b81526020019060019003908161036e5790505b5090506000805b6000548110156105a1576000818152600160205260409020546001600160a01b0316331480156103e65750600081815481106103c857fe5b6000918252602090912060059091020160030154610100900460ff16155b1561059957600081815481106103f857fe5b90600052602060002090600502016040518060c001604052908160008201548152602001600182018054600181600116156101000203166002900480601f0160208091040260200160405190810160405280929190818152602001828054600181600116156101000203166002900480156104b45780601f10610489576101008083540402835291602001916104b4565b820191906000526020600020905b81548152906001019060200180831161049757829003601f168201915b5050509183525050600282810180546040805160206001841615610100026000190190931694909404601f810183900483028501830190915280845293810193908301828280156105465780601f1061051b57610100808354040283529160200191610546565b820191906000526020600020905b81548152906001019060200180831161052957829003601f168201915b5050509183525050600382015460ff808216151560208401526101009091041615156040820152600490910154606090910152835184908490811061058757fe5b60209081029190910101526001909101905b600101610390565b506060816040519080825280602002602001820160405280156105de57816020015b6105cb610a00565b8152602001906001900390816105c35790505b50905060005b8281101561061f578381815181106105f857fe5b602002602001015182828151811061060c57fe5b60209081029190910101526001016105e4565b50925050505b90565b6000818152600160205260409020546001600160a01b031633146106675760405162461bcd60e51b815260040161065e90610dc3565b60405180910390fd5b60016000828154811061067657fe5b906000526020600020906005020160030160016101000a81548160ff0219169083151502179055507f4d3f78f0596d39b555572af3b3508d43d776242a1b22c87f97fa71f13e9b2caa81600083815481106106cd57fe5b906000526020600020906005020160030160019054906101000a900460ff166040516106fa929190610dd3565b60405180910390a150565b6000818154811061071257fe5b9060005260206000209060050201600091509050806000015490806001018054600181600116156101000203166002900480601f0160208091040260200160405190810160405280929190818152602001828054600181600116156101000203166002900480156107c45780601f10610799576101008083540402835291602001916107c4565b820191906000526020600020905b8154815290600101906020018083116107a757829003601f168201915b50505060028085018054604080516020601f60001961010060018716150201909416959095049283018590048502810185019091528181529596959450909250908301828280156108565780601f1061082b57610100808354040283529160200191610856565b820191906000526020600020905b81548152906001019060200180831161083957829003601f168201915b505050506003830154600490930154919260ff8082169361010090920416915086565b600054610884610a00565b506040805160c08101825282815260208082018781529282018690526000606083018190526080830181905260a0830186905280546001810180835591805283517f290decd9548b62a8d60345a988386fc84ba6bc95484008f6362f93160ef3e563600590920291820190815594518051949592948694610929937f290decd9548b62a8d60345a988386fc84ba6bc95484008f6362f93160ef3e56401920190610a3a565b5060408201518051610945916002840191602090910190610a3a565b506060820151600382018054608085015115156101000261ff001993151560ff19909216919091179290921691909117905560a090910151600490910155506000828152600160205260409081902080546001600160a01b0319163390811790915590517feb2fbc651194cbec6fe990857b04243a010e3e05d12441e94a73f3dddb1129d5916109d6918590610d97565b60405180910390a15050505050565b6001602052600090815260409020546001600160a01b031681565b6040518060c00160405280600081526020016060815260200160608152602001600015158152602001600015158152602001600081525090565b828054600181600116156101000203166002900490600052602060002090601f016020900481019282601f10610a7b57805160ff1916838001178555610aa8565b82800160010185558215610aa8579182015b82811115610aa8578251825591602001919060010190610a8d565b50610ab4929150610ab8565b5090565b61062591905b80821115610ab45760008155600101610abe565b600082601f830112610ae357600080fd5b8135610af6610af182610e7d565b610e56565b91508082526020830160208301858383011115610b1257600080fd5b610b1d838284610ee5565b50505092915050565b8035610b3181610f2b565b92915050565b600080600060608486031215610b4c57600080fd5b833567ffffffffffffffff811115610b6357600080fd5b610b6f86828701610ad2565b935050602084013567ffffffffffffffff811115610b8c57600080fd5b610b9886828701610ad2565b9250506040610ba986828701610b26565b9150509250925092565b600060208284031215610bc557600080fd5b6000610bd18484610b26565b949350505050565b6000610be58383610cf7565b9392505050565b610bf581610ed4565b82525050565b610bf581610eb8565b6000610c0f82610eab565b610c198185610eaf565b935083602082028501610c2b85610ea5565b8060005b85811015610c655784840389528151610c488582610bd9565b9450610c5383610ea5565b60209a909a0199925050600101610c2f565b5091979650505050505050565b610bf581610ec3565b6000610c8682610eab565b610c908185610eaf565b9350610ca0818560208601610ef1565b610ca981610f21565b9093019392505050565b6000610cc0602283610eaf565b7f596f7520617265206e6f7420746865206f776e6572206f66207468697320746f815261646f60f01b602082015260400192915050565b805160009060c0840190610d0b8582610d80565b5060208301518482036020860152610d238282610c7b565b91505060408301518482036040860152610d3d8282610c7b565b9150506060830151610d526060860182610c72565b506080830151610d656080860182610c72565b5060a0830151610d7860a0860182610d80565b509392505050565b610bf581610625565b60208101610b318284610bfb565b60408101610da58285610bec565b610be56020830184610d80565b60208082528101610be58184610c04565b60208082528101610b3181610cb3565b60408101610de18285610d80565b610be56020830184610c72565b60c08101610dfc8289610d80565b8181036020830152610e0e8188610c7b565b90508181036040830152610e228187610c7b565b9050610e316060830186610c72565b610e3e6080830185610c72565b610e4b60a0830184610d80565b979650505050505050565b60405181810167ffffffffffffffff81118282101715610e7557600080fd5b604052919050565b600067ffffffffffffffff821115610e9457600080fd5b506020601f91909101601f19160190565b60200190565b5190565b90815260200190565b6000610b3182610ec8565b151590565b6001600160a01b031690565b6000610b31826000610b3182610eb8565b82818337506000910152565b60005b83811015610f0c578181015183820152602001610ef4565b83811115610f1b576000848401525b50505050565b601f01601f191690565b610f3481610625565b8114610f3f57600080fd5b5056fea365627a7a723158203700a4409a4857fdb4da21bf13b6a0ca75b09b20523609468dd9ef703d68cbd46c6578706572696d656e74616cf564736f6c63430005100040",
  "source": "pragma solidity >=0.4.22 <0.7.0;\npragma experimental ABIEncoderV2;\n\ncontract TodoList {\n    struct Todo {\n        uint id;\n        string name;\n        string description;\n        bool isCompleted;\n        bool isDeleted;\n        uint256 createdAt;\n    }\n\n    // Array to store all Todo items\n    Todo[] public todos;\n\n    // Mapping to store the index of each Todo item in the array\n    mapping(uint256 => address) public todoToOwner;\n\n    event AddTodo(address recepient, uint todoId);\n\n    event DeleteTodo(uint todoId, bool isDeleted);\n\n    function addTodo(\n        string memory _name,\n        string memory _description,\n        uint256 _createdAt\n    ) public {\n        uint todoId = todos.length;\n        Todo memory newTodo = Todo({\n            id: todoId,\n            name: _name,\n            description: _description,\n            isCompleted: false,\n            isDeleted: false,\n            createdAt: _createdAt\n        });\n\n        todos.push(newTodo);\n\n        // Store the index of the Todo item along with the creator's address\n        todoToOwner[todoId] = msg.sender;\n\n        emit AddTodo(msg.sender, todoId);\n    }\n\n    function deleteTodo(uint todoId) external {\n        require(\n            todoToOwner[todoId] == msg.sender,\n            \"You are not the owner of this todo\"\n        );\n        todos[todoId].isDeleted = true;\n\n        emit DeleteTodo(todoId, todos[todoId].isDeleted);\n    }\n\n    function toggleCompleted(uint todoId) external {\n        Todo memory todo = todos[todoId];\n        todo.isCompleted = !todo.isCompleted;\n        todos[todoId] = todo;\n    }\n\n    function getMyTodos() public view returns (Todo[] memory) {\n        Todo[] memory myTodos = new Todo[](todos.length);\n        uint counter = 0;\n        for (uint i = 0; i < todos.length; i++) {\n            if (todoToOwner[i] == msg.sender && todos[i].isDeleted == false) {\n                myTodos[counter] = todos[i];\n                counter++;\n            }\n        }\n        Todo[] memory result = new Todo[](counter);\n        for (uint i = 0; i < counter; i++) {\n            result[i] = myTodos[i];\n        }\n        return result;\n    }\n}\n",
  "sourcePath": "/Users/ro./Developments/todo-list/smart-contract/contracts/TodoList.sol",
  "compiler": {
    "name": "solc",
    "version": "0.5.16+commit.9c3226ce.Emscripten.clang"
  },
  "schemaVersion": "3.4.16",
  "updatedAt": "2024-04-09T02:23:17.309Z",
  "networkType": "ethereum",
  "devdoc": {
    "methods": {}
  },
  "userdoc": {
    "methods": {}
  }
}